:020000040000FA
:0400000007EF00F016
:0A000800258252ED09F0CBEF09F05C
:0F10000000494E56414C4944204D5347210000B2
:10101000FBEC09F07DEC08F0F28E1650D8B413EF1B
:1010200008F015EF08F00DEF08F01750D8B41BEFDB
:1010300008F01DEF08F03BEF08F0010E1D6E010EE9
:10104000EBEC08F0000E216E010E2124F66EF76A1B
:10105000100EF7220800F5507FEC09F0212A0B0E44
:10106000216435EF08F037EF08F024EF08F0000EA8
:10107000166E0DEF08F01850010B300F156E18505A
:10108000020B300F146E15C00AF014C005F0010EEB
:101090001D6E010EEBEC08F0000E226E060E2224EF
:1010A000D96EDA6A000EDA22DF507FEC09F0222ACC
:1010B000040E22645EEF08F060EF08F04EEF08F0D7
:1010C000010E1D6E020EEBEC08F0000E236E010EF9
:1010D0002324D96EDA6A000EDA22DF507FEC09F0A1
:1010E000232A040E236477EF08F079EF08F067EF06
:1010F00008F037EF08F007EF00F0000E826E000EE8
:10110000836E070E9416F00E9512CB0E1E6EEC0E2B
:101110001D6E840EE82EFED71D2EFCD71E2EFAD78C
:1011200000D0CB0E1E6EEC0E1D6E840EE82EFED788
:101130001D2EFCD71E2EFAD700D0660E1E6E760E20
:101140001D6EC10EE82EFED71D2EFCD71E2EFAD71F
:1011500000F0060E1E6E130E1D6EAE0EE82EFED7AC
:101160001D2EFCD71E2EFAD7300EA5EC09F0410E2D
:101170001D6EEE0EE82EFED71D2EFCD700D0300ED1
:10118000A5EC09F0D60E00D000D0E82EFCD700D098
:10119000300EA5EC09F0280EA5EC09F00E0EA5EC1A
:1011A00009F0010EA5EC09F0060EA5EC09F0060EFB
:1011B0001E6E130E1D6EAE0EE82EFED71D2EFCD732
:1011C0001E2EFAD7010E136E060E0C6E0E0E0E6E4C
:1011D000280E0B6E1200206E030E2060F2EF08F056
:1011E000F4EF08F051EF09F0200E1D64FAEF08F05B
:1011F000FCEF08F0FEEF08F051EF09F02004D8A44E
:1012000004EF09F006EF09F012EF09F0100E1D606F
:101210000CEF09F00EEF09F012EF09F01D041F6E3C
:101220003BEF09F0020E2018D8A419EF09F01BEFCC
:1012300009F028EF09F0100E1D6021EF09F023EFEF
:1012400009F028EF09F01D503F0F1F6E3BEF09F02A
:101250002004D8A42EEF09F030EF09F051EF09F087
:10126000100E1D6436EF09F038EF09F051EF09F068
:101270001D502F0F1F6E0C50FF0A1E6E1EA843EF4D
:1012800009F045EF09F04BEF09F01F508009A5EC7C
:1012900009F04FEF09F01F508009E8EC09F01FC07A
:1012A00011F0120006009EA658EF09F05AEF09F05F
:1012B0007DEF09F09DA65FEF09F061EF09F07DEF8A
:1012C00009F0010E196EC9CF18F018C01AF0C00E3F
:1012D0001A16D8B46EEF09F070EF09F078EF09F044
:1012E0006A0EC96E010E176E010E166E7CEF09F0C4
:1012F0003F0EC96E010E166E9E96259211001C6E51
:10130000070E94160F0E95168B808B921CC01BF047
:10131000F00E1B1683500F0B1B10836E0BEC0AF0A4
:101320001CC01BF01B3AF00E1B16F00E1B16835050
:101330000F0B1B10836E0BEC0AF0820E1B6EDE0E81
:10134000E82EFED71B2EFCD712001C6E070E94163B
:101350000F0E95168B908B921CC01BF0F00E1B1677
:1013600083500F0B1B10836E0BEC0AF01CC01BF09C
:101370001B3AF00E1B16F00E1B1683500F0B1B10A2
:10138000836E0BEC0AF0820E1B6EDE0EE82EFED78B
:101390001B2EFCD71200360EF66E140EF76E000EE2
:1013A000F86E00EE01F010EE0EF00900F5CFEEFF42
:1013B000E550E150FAE100EE0FF00B0EEE6AE806A0
:1013C000FDE125902592000EF86E000108EF08F06F
:1013D0001C6E070E9416000E956E8B908B921CC09F
:1013E00083FF0BEC0AF0820E1B6EDE0EE82EFED79A
:1013F0001B2EFCD71200C69AC684C78C180E9412F6
:10140000949A928AC68AC69EC69CC9509E96010E20
:10141000246E9D8612008B94060EE82EFED700D017
:101420008B84060EE82EFED700D08B94060EE82E95
:10143000FED700D0120042323A200042313A20005A
:041440003006010869
:020000040020DA
:08000000FFFFFFFFFFFFFFFF00
:020000040030CA
:0E000000FF061F1EFF8081FF0FC00FE00F40A4
:00000001FF
