:020000040000FA
:0400000007EF00F016
:10000800168260ED00F0EAEF00F0F29E07EC01F0D6
:10001800000E846E96809682C150F00B0A09C16E5C
:10002800F40E0F6E240E0E6E1AEC01F03AEC01F08D
:10003800F28CF28E0150D8B424EF00F026EF00F0D5
:100048001EEF00F0000E026E84B02DEF00F030EFCE
:1000580000F0010E31EF00F0000E021284B237EF0B
:1000680000F03BEF00F0116A112A3CEF00F0116A32
:10007800D890113402120250C2EC00F00B0E0F6E31
:10008800000E106E27EC01F07F0E0B18D8B44FEF5E
:1000980000F051EF00F05AEF00F00250C2EC00F00F
:1000A8000B0E0F6E000E106E27EC01F0000E016EA5
:1000B8001EEF00F007EF00F006009EA666EF00F0C6
:1000C80068EF00F072EF00F09DA66DEF00F06FEFA3
:1000D80000F072EF00F0010E056E9E96A1A077EF7A
:1000E80000F079EF00F094EF00F0A0A07EEF00F0B0
:1000F80080EF00F094EF00F00350D8B486EF00F0E2
:1001080088EF00F08FEF00F0000E036E010E016E15
:10011800A19094EF00F0010E036E000E016EA19005
:10012800169211000E6E010E046E000E056E06503A
:10013800D8A4A1EF00F0A3EF00F0A4EF00F08C9496
:100148000EC0C9FF0550D8B4ACEF00F0AEEF00F018
:10015800A6EF00F00650D8A4B4EF00F0B6EF00F018
:10016800B7EF00F08C840CC0D9FF0DC0DAFFC9CFFF
:10017800DFFF000E046E000E056E12000C6E010EFD
:10018800046E000E056E0650D8A4CDEF00F0CFEF38
:1001980000F0D0EF00F08C940CC0C9FF0550D8B423
:1001A800D8EF00F0DAEF00F0D2EF00F00650D8A454
:1001B800E0EF00F0E2EF00F0E3EF00F08C84000ED7
:1001C800056E000E046E000E056E1200700EF66EBF
:1001D800020EF76E000EF86E00EE12F010EE04F04C
:1001E8000900F5CFEEFFE550E150FAE100EE01F02D
:1001F8000B0EEE6AE806FDE116901692000EF86EF8
:10020800000109EF00F0C69A010EC66E400EC76ED7
:100218009488D70E94169594C68AC69EC69CC950D3
:100228009E968C84000E066E9D861200B00ECD6ED2
:10023800B00EB16E34EC01F00EC00CF00FC00DF032
:100248002FEC01F012000FC00CF010C00DF0000EE2
:1002580096EC00F012000CC0BBFF0DC0BCFF1200F2
:100268000A0EBA6EA080120030060108CD80120076
:020000040020DA
:08000000FFFFFFFFFFFFFFFF00
:020000040030CA
:0E000000FF061F1EFF8081FF0FC00FE00F40A4
:00000001FF
