:020000040000FA
:0400000007EF00F016
:100008000C8226ED00F009EF00F0B40EF66E000E3B
:10001800F76E000EF86E00EE08F010EE04F009001E
:10002800F5CFEEFFE550E150FAE100EE01F0070EE2
:10003800EE6AE806FDE10C900C92000EF86E0001E5
:100048004CEF00F006009EA62CEF00F02EEF00F01B
:1000580038EF00F09DA633EF00F035EF00F038EFF1
:1000680000F0010E076E9E960C921100C69A010EC2
:10007800C66E400EC76E9488D70E94169594C68A9D
:10008800C69EC69CC9509E968C849D86F28E120090
:100098003AEC00F0000E846E96809682C150F00B08
:1000A8000E09C16E56EF00F007EF00F030060108A8
:020000040020DA
:08000000FFFFFFFFFFFFFFFF00
:020000040030CA
:0E000000FF061F1EFF8081FF0FC00FE00F40A4
:00000001FF
