:020000040000FA
:0400000007EF00F016
:0A0008004882A8ED09F01FEF0AF08E
:0F10000000494E56414C4944204D5347210000B2
:10101000F29ED3EC08F069EC0AF0F28CF28E010E2D
:10102000046E010E41EC09F020EE20F010EE0AF003
:101030000D0EDBCFE3FFE806FCE2000E1C6E0A0E8D
:101040001C24D96EDA6A000EDA22DF50D3EC09F0E4
:101050001C2A0C0E1C642FEF08F031EF08F01FEF74
:1010600008F0660E096E760E086EC10EE82EFED7E9
:10107000082EFCD7092EFAD700F03CEC0AF03E50BF
:10108000D8B445EF08F047EF08F03FEF08F03F50C5
:10109000D8B44DEF08F04FEF08F071EF08F03CECDA
:1010A0000AF0010E046E010E41EC09F0000E1D6EF7
:1010B000010E1D24F66EF76A100EF7220800F55097
:1010C000D3EC09F01D2A0B0E1D6469EF08F06BEFDD
:1010D00008F058EF08F0000E3E6E000E3F6E3FEF36
:1010E00008F040B076EF08F078EF08F07EEF08F0F7
:1010F000000E196E300E186E82EF08F0000E196E99
:10110000310E186E18C03DF040B289EF08F08BEF39
:1011100008F091EF08F0000E1B6E300E1A6E95EF7E
:1011200008F0000E1B6E310E1A6E1AC03CF03DC066
:1011300037F03CC032F0010E046E010E41EC09F0B4
:10114000000E1E6E330E1E24D96EDA6A000EDA22ED
:10115000DF50D3EC09F01E2A040E1E64B2EF08F033
:10116000B4EF08F0A2EF08F0010E046E020E41EC9D
:1011700009F0000E1F6E2E0E1F24D96EDA6A000EC3
:10118000DA22DF50D3EC09F01F2A040E1F64CBEFE4
:1011900008F0CDEF08F0BBEF08F0000E3E6E3FEF19
:1011A00008F007EF00F0000E826E000E836EF80E5E
:1011B0009416F00E9512CB0E056EEC0E046E840E96
:1011C000E82EFED7042EFCD7052EFAD700D0CB0E82
:1011D000056EEC0E046E840EE82EFED7042EFCD7AE
:1011E000052EFAD700D0660E056E760E046EC10E7F
:1011F000E82EFED7042EFCD7052EFAD700F0060EF7
:10120000056E130E046EAE0EE82EFED7042EFCD72C
:10121000052EFAD7300EF9EC09F0410E046EEE0EF1
:10122000E82EFED7042EFCD700D0300EF9EC09F0E2
:10123000D60E00D000D0E82EFCD700D0300EF9EC4E
:1012400009F0280EF9EC09F00E0EF9EC09F0010E88
:10125000F9EC09F0060EF9EC09F0060E056E130E16
:10126000046EAE0EE82EFED7042EFCD7052EFAD75C
:10127000010E476E060E396E0E0E3B6E280E386E4E
:101280001200076E030E076048EF09F04AEF09F0FD
:10129000A7EF09F0200E046450EF09F052EF09F0B7
:1012A00054EF09F0A7EF09F00704D8A45AEF09F0AA
:1012B0005CEF09F068EF09F0100E046062EF09F0CE
:1012C00064EF09F068EF09F00404066E91EF09F08D
:1012D000020E0718D8A46FEF09F071EF09F07EEF46
:1012E00009F0100E046077EF09F079EF09F07EEF56
:1012F00009F004503F0F066E91EF09F00704D8A4DF
:1013000084EF09F086EF09F0A7EF09F0100E0464EE
:101310008CEF09F08EEF09F0A7EF09F004502F0FC2
:10132000066E3950FF0A056E05A899EF09F09BEF8C
:1013300009F0A1EF09F006508009F9EC09F0A5EFDA
:1013400009F00650800956EC0AF006C045F012007C
:1013500006009EA6AEEF09F0B0EF09F0D1EF09F05C
:101360009DA6B5EF09F0B7EF09F0D1EF09F0010E36
:10137000426EC9CF40F0010E3E6E40C001F0C00E7B
:101380000116D8B4C6EF09F0C8EF09F0CEEF09F0A6
:101390006A0EC96E010E3F6ED0EF09F03F0EC96EA6
:1013A0009E9648921100036EF80E94160F0E951635
:1013B0008B808B9203C002F0F00E021683500F0B4D
:1013C0000210836E79EC0AF003C002F0023AF00ECC
:1013D0000216F00E021683500F0B0210836E79EC8A
:1013E0000AF0820E026EDE0EE82EFED7022EFCD729
:1013F0001200036EF80E94160F0E95168B908B92BA
:1014000003C002F0F00E021683500F0B0210836E21
:1014100079EC0AF003C002F0023AF00E0216F00E68
:10142000021683500F0B0210836E79EC0AF0820EC5
:10143000026EDE0EE82EFED7022EFCD71200120E30
:10144000F66E150EF76E000EF86E00EE20F010EE40
:101450001CF00900F5CFEEFFE550E150FAE100EE97
:101460003CF00C0EEE6AE806FDE148904892000E52
:10147000F86E000108EF08F03950FF0A046E04A866
:1014800044EF0AF046EF0AF04BEF0AF0010EF9ECD8
:1014900009F04EEF0AF0010E56EC0AF0820E046ECF
:1014A000DE0EE82EFED7042EFCD71200036EF80ED7
:1014B0009416000E956E8B908B9203C083FF79EC8F
:1014C0000AF0820E026EDE0EE82EFED7022EFCD748
:1014D0001200C69AC684C78C180E9412949A928AE7
:1014E000C68AC69EC69CC9509E96010E436E9D86B6
:1014F00012008B94060EE82EFED700D08B84060EC9
:10150000E82EFED700D08B94060EE82EFED700D032
:101510001200496E697420737563636573732100EB
:0E15200042323A200042313A200030060108E3
:020000040020DA
:08000000FFFFFFFFFFFFFFFF00
:020000040030CA
:0E000000FF061F1EFF8081FF0FC00FE00F40A4
:00000001FF
