:020000040000FA
:0400000007EF00F016
:10000800138209ED00F03DEF00F006009EA60FEF09
:1000180000F011EF00F01BEF00F09DA616EF00F0C6
:1000280018EF00F01BEF00F0010E0A6E9E96A1A0DB
:1000380020EF00F022EF00F03BEF00F0A0A027EF48
:1000480000F029EF00F03BEF00F00950D8B42FEF93
:1000580000F031EF00F038EF00F0000E096E010EED
:10006800076EA1903BEF00F0010E096EA19013926C
:100078001100300EF66E010EF76E000EF86E00EEEF
:100088000BF010EE04F00900F5CFEEFFE550E1505B
:10009800FAE100EE01F00A0EEE6AE806FDE11390BF
:1000A8001392000EF86E00015AEF00F071EC00F0A8
:1000B800000E846E96809682C150F00B0E09C16EB8
:1000C800F40E126E240E116E82EC00F09AEC00F021
:1000D800F28E6DEF00F007EF00F0C69A010EC66EC3
:1000E800400EC76E9488D70E94169594C68AC69EFD
:1000F800C69CC9509E968C849D861200B00ECD6E0B
:10010800B70EB11695EC00F011C00FF012C010F048
:1001180090EC00F0A08012000FC0BBFF10C0BCFF25
:100128001200050EBA6E120030060108CD801200CA
:020000040020DA
:08000000FFFFFFFFFFFFFFFF00
:020000040030CA
:0E000000FF061F1EFF8081FF0FC00FE00F40A4
:00000001FF
