:020000040000FA
:0400000007EF00F016
:10000800158248ED00F0A6EF00F0F29EC3EC00F078
:10001800000E846E96809682C150F00B0A09C16E5C
:10002800F40E0F6E240E0E6ED6EC00F0EEEC00F01F
:10003800F28CF28E0150D8B424EF00F026EF00F0D5
:100048001EEF00F0000E036E84B02DEF00F030EFCD
:1000580000F0010E31EF00F0000E031284B237EF0A
:1000680000F03BEF00F0106A102A3CEF00F0106A35
:10007800D8901034031203507EEC00F0000E016E8D
:100088001EEF00F007EF00F006009EA64EEF00F00E
:1000980050EF00F05AEF00F09DA655EF00F057EF33
:1000A80000F05AEF00F0010E066E9E96A1A05FEFD9
:1000B80000F061EF00F07CEF00F0A0A066EF00F028
:1000C80068EF00F07CEF00F00450D8B46EEF00F059
:1000D80070EF00F077EF00F0000E046E010E016E75
:1000E800A1907CEF00F0010E046E000E016EA1904D
:1000F800159211000C6E010E056E000E066E07506B
:10010800D8A489EF00F08BEF00F08CEF00F08C940E
:100118000CC0C9FF0650D8B494EF00F096EF00F079
:100128008EEF00F00750D8A49CEF00F09EEF00F08F
:100138009FEF00F08C84000E066E000E056E000E18
:10014800066E1200D80EF66E010EF76E000EF86EEF
:1001580000EE11F010EE04F00900F5CFEEFFE550C7
:10016800E150FAE100EE01F00B0EEE6AE806FDE15F
:1001780015901592000EF86E000109EF00F0C69A6E
:10018800010EC66E400EC76E9488D70E94169594CD
:10019800C68AC69EC69CC9509E968C84000E076E61
:1001A8009D861200B00ECD6EB00EB16EE8EC00F078
:1001B8000EC00CF00FC00DF0E3EC00F012000CC004
:1001C800BBFF0DC0BCFF12000A0EBA6EA080120061
:0801D80030060108CD80120081
:020000040020DA
:08000000FFFFFFFFFFFFFFFF00
:020000040030CA
:0E000000FF061F1EFF8081FF0FC00FE00F40A4
:00000001FF
