:020000040000FA
:0400000007EF00F016
:10000800188248ED00F09EEF00F0F29EBBEC00F085
:10001800000E846E96809682C150F00B0A09C16E5C
:10002800F40E126E240E116ECEEC00F0E6EC00F029
:10003800F28CF28E0150D8B424EF00F026EF00F0D5
:100048001EEF00F0000E036E84B02DEF00F030EFCD
:1000580000F0010E31EF00F0000E031284B237EF0A
:1000680000F03BEF00F0136A132A3CEF00F0136A2C
:10007800D8901334031203507EEC00F0000E016E8A
:100088001EEF00F007EF00F006009EA64EEF00F00E
:1000980050EF00F05AEF00F09DA655EF00F057EF33
:1000A80000F05AEF00F0010E066E9E96A1A05FEFD9
:1000B80000F061EF00F07CEF00F0A0A066EF00F028
:1000C80068EF00F07CEF00F00450D8B46EEF00F059
:1000D80070EF00F077EF00F0000E046E010E016E75
:1000E800A1907CEF00F0010E046E000E016EA1904D
:1000F800189211000F6E010E056E000E066E085064
:10010800D8A489EF00F08BEF00F08CEF00F08C940E
:100118000FC0C9FF0650D8B494EF00F096EF00F076
:100128008EEF00F08C84000E066E000E056E000E39
:10013800066E1200C80EF66E010EF76E000EF86E0F
:1001480000EE14F010EE04F00900F5CFEEFFE550D4
:10015800E150FAE100EE01F00E0EEE6AE806FDE16C
:1001680018901892000EF86E000109EF00F0C69A78
:10017800010EC66E400EC76E9488D70E94169594DD
:10018800C68AC69EC69CC9509E968C84000E086E70
:100198009D861200B00ECD6EB00EB16EE0EC00F090
:1001A80011C00FF012C010F0DBEC00F012000FC00D
:1001B800BBFF10C0BCFF12000A0EBA6EA08012006E
:0801C80030060108CD80120091
:020000040020DA
:08000000FFFFFFFFFFFFFFFF00
:020000040030CA
:0E000000FF061F1EFF8081FF0FC00FE00F40A4
:00000001FF
