:020000040000FA
:0400000007EF00F016
:100008007F82B6ED04F0E0EF04F05BEC03F096803D
:100018009682FCEC05F0F40E556E240E546ED6EC68
:1000280005F0F7EC05F0300E556ED40E546ECBEC9F
:1000380005F03DEC05F0CD80B180F28CF28E000E1B
:100048002C6E010E2B6E000E2E6E000E2F6E000E03
:10005800306E000E316E010E2D6E000E326E080EDF
:10006800336E1850D8B424D084A003D0796A792A82
:1000780001D0796A84A203D07A6A7A2A01D07A6A8E
:10008800D8907A347910346E0FC035F010C036F03D
:100098000DC037F00EC038F00BC039F00CC03AF084
:1000A800000E3B6E2B0E5D6E8AEC04F0000E186E8F
:1000B8001A50D8B4A1D0520E566E2C0E99EC05F0F9
:1000C80052AE3FD04D0E566E0F0E99EC05F04D50C6
:1000D800080B176E1750D8B42DD0500E566E300E30
:1000E80099EC05F04F0E566E400E99EC05F04E0E49
:1000F800566E500E99EC05F050A808D0162A040E3A
:10010800166004D02B0E5D6E8AEC04F04FA808D060
:10011800152A040E156004D02B0E5D6E8AEC04F0CF
:100128004EA808D0142A040E146004D02B0E5D6E5D
:100138008AEC04F0800E566E000E576E2C0E57ECAB
:1001480005F052AA0CD0510E566E2D0E99EC05F002
:100158002D0E566E000E576E2C0E57EC05F052A859
:1001680009D00D4A0E2A100E566E000E576E2C0E30
:1001780057EC05F052A609D00D4A0E2A080E566E05
:10018800000E576E2C0E57EC05F052A409D00D4AFC
:100198000E2A040E566E000E576E2C0E57EC05F004
:1001A80052A213D0010E1E6E3C0E696E9A0E6A6E34
:1001B800DCEC03F0010E116E010E136E020E566E8A
:1001C800000E576E2C0E57EC05F052A013D0010EFE
:1001D8001F6E3C0E696E9A0E6A6EDCEC03F0010E1F
:1001E800126E010E136E010E566E000E576E2C0E17
:1001F80057EC05F0000E1A6E1350D8B432D71250CF
:10020800D8B425D0400E3C183D10D8A410D0BC0E50
:100218003F180DE1FA0E40180AE1030E411842108A
:10022800D8A405D00B4A0C2A000E126E10D0400E2E
:100238003C183D10D8A40BD0100E3F1808E1100E42
:10024800401841104210D8A402D08C76EDD7115036
:10025800D8B426D0400E00019A199B11D8A410D00A
:10026800BC0E9D190DE1FA0E9E190AE1030E9F19A5
:10027800A011D8A405D00B4A0C2A000E116E10D07C
:10028800400E9A199B11D8A40BD0100E9D1908E1A5
:10029800100E9E199F11A011D8A402D08C76EDD70C
:1002A800000E136EDED65550D96EDA6ADF50566EE0
:1002B800576AD89056365736D89056365736D8900B
:1002C800563657365550D96EDA6A010ED926DF50A0
:1002D800586E050E596ED8905832592EFCD7070E15
:1002E800581658505612000E57125450D96EDA6AE2
:1002F80056C0DEFF57C0DDFF5450D96EDA6A020ED1
:10030800D9265550E16EE26A010EE126E750566E95
:10031800D8905632D8905632D8905630010BDF6EAE
:100328005550D96EDA6A020ED926DF50566E56C07D
:1003380057F0586A596A5A6A59C05AF058C059F061
:1003480057C058F0576A5550D96EDA6A010ED92647
:10035800DF505B6E030E5B165BC05CF05D6A5E6A25
:100368005F6A5DC05FF05CC05EF05D6A5C6A5750B2
:100378005C10606E58505D10616E59505E10626E70
:100388005A505F10636E5550D96EDA6A030ED9263B
:10039800DF50646E64506010656E6150666E625026
:1003A800676E6350686E5450D96EDA6A030ED926A8
:1003B80065C0DEFF66C0DEFF67C0DEFF68C0DEFF27
:1003C8005450D96EDA6A070ED9265550E16EE26AA2
:1003D800040EE126E750566E060E576ED890563238
:1003E800572EFCD75650010BDF6E5450D96EDA6A7F
:1003F800080ED9265550E16EE26A040EE126E75050
:100408000F0BDF6E5550D96EDA6A050ED926545097
:10041800E16EE26A090EE126DFCFE7FF5550D96E9B
:10042800DA6A060ED9265450E16EE26A0A0EE1260F
:10043800DFCFE7FF5550D96EDA6A070ED926545038
:10044800E16EE26A0B0EE126DFCFE7FF5550D96E69
:10045800DA6A080ED9265450E16EE26A0C0EE126DB
:10046800DFCFE7FF5550D96EDA6A090ED926545006
:10047800E16EE26A0D0EE126DFCFE7FF5550D96E37
:10048800DA6A0A0ED9265450E16EE26A0E0EE126A7
:10049800DFCFE7FF5550D96EDA6A0B0ED9265450D4
:1004A800E16EE26A0F0EE126DFCFE7FF5550D96E05
:1004B800DA6A0C0ED9265450E16EE26A100EE12673
:1004C800DFCFE7FF12005550D96EDA6A5450E16E5B
:1004D800E26AE6CF56F0E5CF57F0D8905732563259
:1004E800D89057325632D890573256325650DF6E1F
:1004F8005550D96EDA6A010ED9265450E16EE26A77
:10050800030EE126E6CF56F0E6CF57F0E6CF58F0D7
:10051800E6CF59F0110E05D0D890593258325732DB
:100528005632E82EF9D7030E56165450E16EE26A99
:10053800020EE126E7505A6ED8905A36D8905A36AD
:10054800D8905A365450E16EE26AE7505B6E070E57
:100558005B16050E5C6ED8905B365C2EFCD75B5044
:100568005A105610DF6E5550D96EDA6A020ED92627
:100578005450E16EE26A030EE126E6CF56F0E6CF6C
:1005880057F0E6CF58F0E6CF59F057C056F058C0AC
:1005980057F059C058F0596A5650DF6E5450D96E0A
:1005A800DA6A030ED9265550E16EE26A030EE12697
:1005B800DFCFE7FF5550D96EDA6A040ED9265450BA
:1005C800E16EE26A080EE126E750566E5450E16E7D
:1005D800E26A070EE126E750576E060E586ED8906D
:1005E8005736582EFCD757505610DF6E5450D96ED8
:1005F800DA6A090ED9265550E16EE26A050EE1263F
:10060800DFCFE7FF5450D96EDA6A0A0ED926555063
:10061800E16EE26A060EE126DFCFE7FF5450D96E9D
:10062800DA6A0B0ED9265550E16EE26A070EE1260A
:10063800DFCFE7FF5450D96EDA6A0C0ED926555031
:10064800E16EE26A080EE126DFCFE7FF5450D96E6B
:10065800DA6A0D0ED9265550E16EE26A090EE126D6
:10066800DFCFE7FF5450D96EDA6A0E0ED9265550FF
:10067800E16EE26A0A0EE126DFCFE7FF5450D96E39
:10068800DA6A0F0ED9265550E16EE26A0B0EE126A2
:10069800DFCFE7FF5450D96EDA6A100ED9265550CD
:1006A800E16EE26A0C0EE126DFCFE7FF120085EC6F
:1006B80005F0F28EF1EC05F0060E5B6E130E5A6E25
:1006C800AE0EE82EFED75A2EFCD75B2EFAD7BFEC1B
:1006D80005F0040AD8A4EED7F29E000E546E010E5F
:1006E80023EC04F0F28E040E566E000E576E0F0EB9
:1006F80057EC05F0C00E566EC00E576E2A0E57EC1A
:1007080005F03F0E566E030E576E2A0E57EC05F095
:10071800800E566E800E576E290E57EC05F0400E6F
:10072800566E000E576E290E57EC05F0380E566EB1
:10073800380E576E290E57EC05F0070E566E040E4C
:10074800576E290E57EC05F0070E566E050E576EBC
:10075800280E57EC05F0600E566E000E576E600EB0
:1007680057EC05F0600E566E000E576E700E57EC83
:1007780005F0040E566E040E576E600E57EC05F029
:10078800BF0E566E2B0EACEC05F0000E566E2C0EFE
:10079800ACEC05F0E9EC05F0060E5B6E130E5A6E34
:1007A800AE0EE82EFED75A2EFCD75B2EFAD71200D3
:1007B800000E786E20EE6BF00C0EDE6AE806FDE2A5
:1007C8001F50D8B41CD06B0E566E000E03EC05F00B
:1007D80069C054F06B0E556E57EC01F0010E566E61
:1007E800000E576E2C0E57EC05F0400E566E000E9C
:1007F800576E2D0E57EC05F0000E1F6E78801E50B8
:10080800D8B412006B0E566E010E03EC05F06AC0E8
:1008180054F06B0E556E57EC01F0010E566E000E3B
:10082800576E2C0E57EC05F0400E566E000E576EA4
:100838002D0E57EC05F0000E1E6E78821200576ED2
:1008480021D054B002D0F19C01D0F18C0F0EC1120E
:100858009380F288F292120054B002D0F19A01D03B
:10086800F18A0F0EC1129382F086F090120054B0F4
:1008780002D0F19801D0F1880F0EC1129384F0884C
:10088800F09212005750556E566A5650000AD8A476
:1008980012005550010AD8B4D4D7030AD8B4DCD70B
:1008A800060AD8A41200E3D7596E07D0000E03D069
:1008B800020E01D0040E5A6E11D05950576E586A64
:1008C8005850000AD8A40AD05750010AD8B4EED715
:1008D800030AD8B4EDD7060AD8B4ECD78C94530ED3
:1008E800546E5A5040096FEC05F0000E5B6E530EC3
:1008F800546E56505B24D96EDA6ADF506FEC05F0FF
:100908005B2A0C0E5B64F3D78C84120020EE5EF039
:100918000C0EDE6AE806FDE25DC054F05E0E556E10
:1009280067EC02F0010E6B6E2550D8B410D024503D
:10093800D8B408D02350D8A41200040E6B6E010E50
:10094800236E07D0020E6B6E010E246E02D0010ECC
:10095800256E5E0E566E6B5058EC04F06B50E1EC51
:1009680005F0120006009EB69DA603D0010E1B6E70
:100978009E96F2B2F2A803D0010E1A6EF2929EB4BD
:100988009DA40CD01950D8B404D0000E196E010ED5
:1009980003D0010E196E000E186E9E94A1B0A0A08F
:1009A80001D0A1909EBC9DAC05D0C3CF0FF0C4CFA1
:1009B80010F09E9C7F921100020EF66E0C0EF76EE0
:1009C800000EF86E00EE7BF010EE04F00900F5CF93
:1009D800EEFFE550E150FAE100EE80F02B0EEE6AF2
:1009E800E806FDE100EE01F0530EEE6AE806FDE1CF
:1009F8007F907F92000EF86E000109EF00F0576EAD
:100A08008C945750D8A402D0000E01D0020E586E14
:100A1800530E546E5850582490096FEC05F0000E90
:100A2800596E56505924546E000E6FEC05F0592A31
:100A38000C0E5964F6D78C841200556E010E000115
:100A4800AB6F000E1B6E1C50D8B48C9455C0C9FFF8
:100A58001B50D8B4FDD71C50D8B48C845450D96ED0
:100A6800DA6AC9CFDFFF000E0001AB6F000E1B6E04
:100A78001200C150F00B0A09C16EC30EC216928053
:100A8800300EC112C08EC050C70B1009C06EC050C6
:100A9800F80B0609C06EBA50F00B0B09BA6EC2808B
:100AA8009E9C9D8C1200586E8C94530E546E050EAD
:100AB8006FEC05F0530E546E58506FEC05F0530E62
:100AC800546E56506FEC05F0530E546E57506FEC41
:100AD80005F08C841200556E010E0001AB6F000EFC
:100AE8001B6E55C0C9FF1B50D8B4FDD75450D96EE2
:100AF800DA6AC9CFDFFF000E0001AB6F000E1B6E74
:100B08001200C69A010EC66E400EC76E9488D70EA4
:100B180094169594C68AC69EC69CC9509E968C8487
:100B2800000E1C6E9D86F28C1200576E8C94530E2C
:100B3800546E030E6FEC05F0530E546E57506FEC65
:100B480005F056C054F0000E6FEC05F08C841200CE
:100B5800576E8C94530E546E020E6FEC05F0530EC4
:100B6800546E57506FEC05F0530E546E56506FECA0
:100B780005F08C841200000E596E590E566E0E0E3A
:100B880099EC05F05950E00B586E585012000B0EB6
:100B9800BA6EB196B18C54C0BBFF55C0BCFFA080E3
:100BA800F28C12000B0EBD6EB196B18C54C0BEFF14
:100BB80055C0BFFF9D84F28C1200566E530E546EC2
:100BC8005650080921EC05F01200E00E566E000E92
:100BD800576E0F0E57EC05F01200530E546EC00EF0
:100BE80021EC05F01200880EB16E300EB112120021
:0E0BF800800ECD6E300ECD12120030060108B8
:020000040020DA
:08000000FFFFFFFFFFFFFFFF00
:020000040030CA
:0E000000FF061F1EFF8081FF0FC00FE00F40A4
:00000001FF
