:020000040000FA
:0400000007EF00F016
:0A0008006C820DED0AF0A2EF0AF081
:0F10000000494E56414C4944204D5347210000B2
:10101000D2EC08F0EAEC0AF0F28CF28E010E426E8D
:10102000010E44EC09F020EE21F010EE47F00D0E19
:10103000DBCFE3FFE806FCE2000E596E470E5924B1
:10104000D96EDA6A000EDA22DF5038EC0AF0592A3B
:101050000C0E59642EEF08F030EF08F01EEF08F088
:10106000660E466E760E456EC10EE82EFED7452EF4
:10107000FCD7462EFAD700F0BFEC0AF05F50D8B488
:1010800044EF08F046EF08F03EEF08F06050D8B4A7
:101090004CEF08F04EEF08F070EF08F0BFEC0AF0EC
:1010A000010E426E010E44EC09F0000E5A6E010E64
:1010B0005A24F66EF76A100EF7220800F55038EC45
:1010C0000AF05A2A0B0E5A6468EF08F06AEF08F02B
:1010D00057EF08F0000E5F6E000E606E3EEF08F0F6
:1010E00061B075EF08F077EF08F07DEF08F0000EC3
:1010F000566E300E556E81EF08F0000E566E310EB2
:10110000556E55C05EF061B288EF08F08AEF08F0C6
:1011100090EF08F0000E586E300E576E94EF08F006
:10112000000E586E310E576E57C05DF05EC038F03D
:101130005DC033F0010E426E010E44EC09F0000E6A
:101140005B6E340E5B24D96EDA6A000EDA22DF5051
:1011500038EC0AF05B2A040E5B64B1EF08F0B3EFE1
:1011600008F0A1EF08F0010E426E020E44EC09F007
:10117000000E5C6E2F0E5C24D96EDA6A000EDA2245
:10118000DF5038EC0AF05C2A040E5C64CAEF08F009
:10119000CCEF08F0BAEF08F0000E5F6E3EEF08F0FB
:1011A00007EF00F0000E826E000E836EF80E9416AC
:1011B000F00E9512CB0E436EEC0E426E840EE82EAE
:1011C000FED7422EFCD7432EFAD700D0CB0E436E6B
:1011D000EC0E426E840EE82EFED7422EFCD7432E34
:1011E000FAD700D0660E436E760E426EC10EE82E20
:1011F000FED7422EFCD7432EFAD700F0060E436EE0
:10120000130E426EAE0EE82EFED7422EFCD7432EB2
:10121000FAD7300E5EEC0AF0410E426EEE0EE82E6A
:10122000FED7422EFCD700D0300E5EEC0AF0D60E70
:1012300000D000D0E82EFCD700D0300E5EEC0AF0D3
:10124000280E5EEC0AF00E0E5EEC0AF0010E5EEC6B
:101250000AF0060E5EEC0AF0060E436E130E426EA6
:10126000AE0EE82EFED7422EFCD7432EFAD7000E44
:101270006B6E000E6A6E010E696E060E3A6E0E0EF1
:101280003C6E280E396E1200446E030E44604BEF24
:1012900009F04DEF09F0A8EF09F0200E426453EF7A
:1012A00009F055EF09F057EF09F0A8EF09F04404F1
:1012B000D8A45DEF09F05FEF09F06BEF09F0100EB5
:1012C000426065EF09F067EF09F06BEF09F0420447
:1012D000436E94EF09F0020E4418D8A472EF09F09F
:1012E00074EF09F081EF09F0100E42607AEF09F017
:1012F0007CEF09F081EF09F042503F0F436E94EF0D
:1013000009F04404D8A487EF09F089EF09F0A8EFA9
:1013100009F0100E42648FEF09F091EF09F0A8EF89
:1013200009F042502F0F436E6A50D8A49AEF09F08B
:101330009CEF09F0A2EF09F0435080095EEC0AF03F
:10134000A6EF09F043508009D7EC0AF043C067F0DC
:101350001200EFEF09F08B94060EE82EFED700D0B6
:101360008B84060EE82EFED700D08B94060EE82E56
:10137000FED700D00CEF0AF08B94030EE82EFED7B8
:1013800000F08B84030EE82EFED700F08B94C80E7D
:1013900000D0E82EFDD70CEF0AF08B94060EE82E55
:1013A000FED700D08B84060EE82EFED700D08B949B
:1013B000060EE82EFED700D00CEF0AF08B94060E36
:1013C000E82EFED700D08B84060EE82EFED700D084
:1013D0008B94060EE82EFED700D00CEF0AF06B506F
:1013E0003E6E3F6A3F50000AD8B4F9EF09F00CEFA7
:1013F0000AF03E50000AD8B4ABEF09F0010AD8B4A5
:10140000BCEF09F0030AD8B4CDEF09F0010AD8B453
:10141000DEEF09F00CEF0AF0120006009EA613EFB3
:101420000AF015EF0AF036EF0AF09DA61AEF0AF05F
:101430001CEF0AF036EF0AF0010E636EC9CF61F0BF
:10144000010E5F6E61C03DF0C00E3D16D8B42BEFAB
:101450000AF02DEF0AF033EF0AF06A0EC96E010EA2
:10146000606E35EF0AF03B0EC96E9E966C921100CD
:10147000416EF80E94160F0E95168B808B9241C01C
:1014800040F0F00E401683500F0B4010836EA9EC15
:1014900009F041C040F0403AF00E4016F00E401600
:1014A00083500F0B4010836EA9EC09F0820E406E42
:1014B000DE0EE82EFED7402EFCD71200416EF80E4D
:1014C00094160F0E95168B908B9241C040F0F00E43
:1014D000401683500F0B4010836EA9EC09F041C0F9
:1014E00040F0403AF00E4016F00E401683500F0BBD
:1014F0004010836EA9EC09F0820E406EDE0EE82EDD
:10150000FED7402EFCD7120052783A2030780000E7
:10151000000000000000000052783A2000000000A7
:101520000000000000000000496E697420737563BC
:1015300063657373210042323A200042313A200041
:1015400030060108080EF66E150EF76E000EF86EE6
:1015500000EE01F010EE3CF00900F5CFEEFFE55093
:10156000E150FAE100EE5DF00F0EEE6AE806FDE1F3
:101570006C906C92000EF86E000108EF08F06A5053
:10158000D8A4C5EF0AF0C7EF0AF0CCEF0AF0010EBD
:101590005EEC0AF0CFEF0AF0010ED7EC0AF0820EF3
:1015A000426EDE0EE82EFED7422EFCD71200416EB0
:1015B000F80E9416000E956E8B908B9241C083FFAF
:1015C000A9EC09F0820E406EDE0EE82EFED7402E0A
:1015D000FCD71200C69AC684C78C180E9412949A2F
:1015E000928AC68AC69EC69CC9509E96010E656E9A
:0415F0009D861200C2
:020000040020DA
:08000000FFFFFFFFFFFFFFFF00
:020000040030CA
:0E000000FF061F1EFF8081FF0FC00FE00F40A4
:00000001FF
