:020000040000FA
:0400000007EF00F016
:100008002482D6ED00F089EF00F017EC01F0F28EB3
:1000180071EC01F0060E1E6E130E1D6EAE0EE82E6C
:10002800FED71D2EFCD71E2EFAD74BEC01F0040A82
:10003800D8A4EED73EEC01F0040E196E000E1A6E2D
:100048000F0EBEEC00F0C00E196EC00E1A6E2A0E0E
:10005800BEEC00F03F0E196E030E1A6E2A0EBEECAF
:1000680000F0800E196E800E1A6E290EBEEC00F09C
:10007800400E196E000E1A6E290EBEEC00F0380EF6
:10008800196E380E1A6E290EBEEC00F0070E196EA6
:10009800040E1A6E290EBEEC00F0070E196E050E3E
:1000A8001A6E280EBEEC00F0600E196E000E1A6E65
:1000B800600EBEEC00F0600E196E000E1A6E700E27
:1000C800BEEC00F0040E196E040E1A6E600EBEEC43
:1000D80000F0030E196E0F0E1A6E0D0EBEEC00F036
:1000E8000C0E196E0F0E1A6E0D0EBEEC00F062ECBF
:1000F80001F0060E1E6E130E1D6EAE0EE82EFED714
:100108001D2EFCD71E2EFAD71200EE0EF66E020E2A
:10011800F76E000EF86E00EE1FF010EE04F0090006
:10012800F5CFEEFFE550E150FAE100EE01F0160ED2
:10013800EE6AE806FDE1249024920001EEEF00F05B
:10014800186E010E236E000E0F6E1050D8B48C94EA
:1001580018C0C9FF0F50D8B4FDD71050D8B48C843C
:100168001750D96EDA6AC9CFDFFF000E236E000E72
:100178000F6E12001B6E8C94160E176E050E03EC94
:1001880001F0160E176E1B5003EC01F0160E176ED9
:10019800195003EC01F0160E176E1A5003EC01F01B
:1001A8008C84120006009EB69DA603D0010E0F6E29
:1001B8009E969EB49DA40CD00E50D8B404D0000EC8
:1001C8000E6E010E03D0010E0E6E000E0B6E9E9485
:1001D8002492110009EC00F06AEC01F0F40E186E9C
:1001E800240E176E57EC01F0CD80F28CF28E0B5076
:1001F800D8B4FDD7000E0D6E000E0B6EF8D7186E32
:10020800010E236E000E0F6E18C0C9FF0F50D8B430
:10021800FDD71750D96EDA6AC9CFDFFF000E236EFB
:10022800000E0F6E1200C69A010EC66E400EC76E03
:100238009488D70E94169594C68AC69EC69CC950B3
:100248009E968C84000E106E9D86F28C12001A6E9B
:100258008C94160E176E030E03EC01F0160E176E33
:100268001A5003EC01F019C017F0000E03EC01F06E
:100278008C8412008F0EF1160F0EC112070E931206
:10028800F288F086F088F292F090F0921200000E58
:100298001C6E1C0E196E0E0E2BEC01F01C50E00BA0
:1002A8001B6E1B5012000B0EBD6EB70EB11617C099
:1002B800BEFF18C0BFFF9D84F28C1200E00E196EBD
:1002C800000E1A6E0F0EBEEC00F01200800ECD6EFE
:1002D800300ECD129D80F28C1200160E176EC00ED5
:0A02E800A4EC00F01200300601083B
:020000040020DA
:08000000FFFFFFFFFFFFFFFF00
:020000040030CA
:0E000000FF061F1EFF8081FF0FC00FE00F40A4
:00000001FF
