:020000040000FA
:0400000007EF00F016
:1000080067820EED01F0BFEF00F03AEC01F0F28EDE
:10001800ADEC01F0060E616E130E606EAE0EE82EAA
:10002800FED7602EFCD7612EFAD787EC01F0040AC0
:10003800D8A4EED7F29E000E5A6E010E8AEC00F09C
:10004800F28E040E5C6E000E5D6E0F0EF6EC00F084
:10005800C00E5C6EC00E5D6E2A0EF6EC00F03F0E10
:100068005C6E030E5D6E2A0EF6EC00F0800E5C6E80
:10007800800E5D6E290EF6EC00F0400E5C6E000EF0
:100088005D6E290EF6EC00F0380E5C6E380E5D6E73
:10009800290EF6EC00F0070E5C6E040E5D6E290E5C
:1000A800F6EC00F0070E5C6E050E5D6E280EF6ECA1
:1000B80000F0600E5C6E000E5D6E600EF6EC00F0F7
:1000C800600E5C6E000E5D6E700EF6EC00F0040EB5
:1000D8005C6E040E5D6E600EF6EC00F03F0E5C6E1A
:1000E8002B0E74EC01F0000E5C6E2C0E74EC01F01B
:1000F8009EEC01F0060E616E130E606EAE0EE82ED9
:10010800FED7602EFCD7612EFAD712005D6E21D083
:100118005AB002D0F19C01D0F18C0F0EC11293801D
:10012800F288F29212005AB002D0F19A01D0F18A04
:100138000F0EC1129382F086F09012005AB002D0CE
:10014800F19801D0F1880F0EC1129384F088F092D3
:1001580012005D505B6E5C6A5C50000AD8A4120005
:100168005B50010AD8B4D4D7030AD8B4DCD7060A3E
:10017800D8A41200E3D7660EF66E030EF76E000ED3
:10018800F86E00EE62F010EE04F00900F5CFEEFF15
:10019800E550E150FAE100EE01F0590EEE6AE8068A
:1001A800FDE167906792000EF86E00014EEF01F0D6
:1001B8005B6E010E666E000E496E4A50D8B48C9480
:1001C8005BC0C9FF4950D8B4FDD74A50D8B48C8415
:1001D8005A50D96EDA6AC9CFDFFF000E666E000E7C
:1001E800496E12005E6E8C94590E5A6E050E26ECFE
:1001F80001F0590E5A6E5E5026EC01F0590E5A6EF7
:100208005C5026EC01F0590E5A6E5D5026EC01F058
:100218008C84120006009EB69DA603D0010E496E7E
:100228009E969EB49DA40CD04850D8B404D0000E1D
:10023800486E010E03D0010E486E000E476E9E9464
:10024800679211005B6E010E666E000E496E5BC010
:10025800C9FF4950D8B4FDD75A50D96EDA6AC9CF08
:10026800DFFF000E666E000E496E1200C69A010E80
:10027800C66E400EC76E9488D70E94169594C68A9B
:10028800C69EC69CC9509E968C84000E4A6E9D865A
:10029800F28C120009EC00F0A6EC01F0F40E5B6E93
:1002A800240E5A6E93EC01F0CD80F28CF28E4750FA
:1002B800D8B4FDD7000E476EFAD75D6E8C94590EF0
:1002C8005A6E030E26EC01F0590E5A6E5D5026EC5C
:1002D80001F05CC05AF0000E26EC01F08C8412008C
:1002E8005D6E8C94590E5A6E020E26EC01F0590E72
:1002F8005A6E5D5026EC01F0590E5A6E5C5026EC91
:1003080001F08C841200000E5F6E5F0E5C6E0E0EA4
:1003180061EC01F05F50E00B5E6E5E5012000B0E58
:10032800BD6EB70EB1165AC0BEFF5BC0BFFF9D843D
:10033800F28C1200E00E5C6E000E5D6E0F0EF6EC95
:1003480000F01200800ECD6E300ECD129D80F28C22
:100358001200590E5A6EC00EDCEC00F01200300686
:0203680001088A
:020000040020DA
:08000000FFFFFFFFFFFFFFFF00
:020000040030CA
:0E000000FF061F1EFF8081FF0FC00FE00F40A4
:00000001FF
