:020000040000FA
:0400000007EF00F016
:1000080047820EED01F0BFEF00F04FEC01F0F28EE9
:10001800AFEC01F0060E416E130E406EAE0EE82EE8
:10002800FED7402EFCD7412EFAD789EC01F0040AFE
:10003800D8A4EED7F29E000E3A6E010E8AEC00F0BC
:10004800F28E040E3C6E000E3D6E0F0EF6EC00F0C4
:10005800C00E3C6EC00E3D6E2A0EF6EC00F03F0E50
:100068003C6E030E3D6E2A0EF6EC00F0800E3C6EE0
:10007800800E3D6E290EF6EC00F0400E3C6E000E30
:100088003D6E290EF6EC00F0380E3C6E380E3D6ED3
:10009800290EF6EC00F0070E3C6E040E3D6E290E9C
:1000A800F6EC00F0070E3C6E050E3D6E280EF6ECE1
:1000B80000F0600E3C6E000E3D6E600EF6EC00F037
:1000C800600E3C6E000E3D6E700EF6EC00F0040EF5
:1000D8003C6E040E3D6E600EF6EC00F03F0E3C6E7A
:1000E8002B0E76EC01F0000E3C6E2C0E76EC01F037
:1000F800A0EC01F0060E416E130E406EAE0EE82E17
:10010800FED7402EFCD7412EFAD712003D6E21D0E3
:100118003AB002D0F19C01D0F18C0F0EC11293803D
:10012800F288F29212003AB002D0F19A01D0F18A24
:100138000F0EC1129382F086F09012003AB002D0EE
:10014800F19801D0F1880F0EC1129384F088F092D3
:1001580012003D503B6E3C6A3C50000AD8A4120085
:100168003B50010AD8B4D4D7030AD8B4DCD7060A5E
:10017800D8A41200E3D76A0EF66E030EF76E000ECF
:10018800F86E00EE42F010EE04F00900F5CFEEFF35
:10019800E550E150FAE100EE01F0390EEE6AE806AA
:1001A800FDE147904792000EF86E000126EF01F03E
:1001B8003B6E010E466E000E296E2A50D8B48C9400
:1001C8003BC0C9FF2950D8B4FDD72A50D8B48C8475
:1001D8003A50D96EDA6AC9CFDFFF000E466E000EBC
:1001E800296E12003E6E8C94390E3A6E050E3BEC69
:1001F80001F0390E3A6E3E503BEC01F0390E3A6E82
:100208003C503BEC01F0390E3A6E3D503BEC01F0AE
:100218008C84120006009EB69DA603D0010E296E9E
:100228009E969EB49DA40CD02850D8B404D0000E3D
:10023800286E010E03D0010E286E000E256E9E94C6
:100248004792110009EC00F0A8EC01F0F40E3B6EA7
:10025800240E3A6E95EC01F0CD80F28CF28E25508A
:10026800D8B4FDD7000E276E000E256EF8D73B6E6A
:10027800010E466E000E296E3BC0C9FF2950D8B446
:10028800FDD73A50D96EDA6AC9CFDFFF000E466E45
:10029800000E296E1200C69A010EC66E400EC76E79
:1002A8009488D70E94169594C68AC69EC69CC95043
:1002B8009E968C84000E2A6E9D86F28C12003D6EEE
:1002C8008C94390E3A6E030E3BEC01F0390E3A6EFF
:1002D8003D503BEC01F03CC03AF0000E3BEC01F025
:1002E8008C8412003D6E8C94390E3A6E020E3BECF3
:1002F80001F0390E3A6E3D503BEC01F0390E3A6E82
:100308003C503BEC01F08C841200000E3F6E3F0E17
:100318003C6E0E0E63EC01F03F50E00B3E6E3E501B
:1003280012000B0EBD6EB70EB1163AC0BEFF3BC031
:10033800BFFF9D84F28C1200E00E3C6E000E3D6EF5
:100348000F0EF6EC00F01200800ECD6E300ECD12BE
:100358009D80F28C1200390E3A6EC00EDCEC00F073
:060368001200300601083E
:020000040020DA
:08000000FFFFFFFFFFFFFFFF00
:020000040030CA
:0E000000FF061F1EFF8081FF0FC00FE00F40A4
:00000001FF
