:020000040000FA
:0400000007EF00F016
:0A000800768221ED0AF004EF0AF001
:0F10000000494E56414C4944204D5347210000B2
:101010009DEC08F061EC0AF0F28CF28E010E426E4B
:10102000010E66EC09F020EE21F010EE47F00D0EF7
:10103000DBCFE3FFE806FCE2000E596E5950470F84
:10104000D96EDA6ADF5098EC09F0592A0C0E59640F
:10105000F5D7660E466E760E456EC10EE82EFED7AB
:10106000452EFCD7462EFAD700F04FEC0AF0695017
:10107000D8B4FDD76A50D8B41DD04FEC0AF0010E99
:10108000426E010E66EC09F0000E5A6E5A50010FC6
:10109000456E45C0F6FF100EF76E0800F55098EC4F
:1010A00009F05A2A0B0E5A64F1D7000E696E000E31
:1010B0006A6EDDD76BB004D0000E566E300E03D0D2
:1010C000000E566E310E556E55C068F06BB204D0EE
:1010D000000E586E300E03D0000E586E310E576E53
:1010E00057C067F068C038F067C033F0010E426E39
:1010F000010E66EC09F0000E5B6E5B50340FD96E8A
:10110000DA6ADF5098EC09F05B2A040E5B64F5D7CD
:10111000010E426E020E66EC09F0000E5C6E5C5031
:101120002F0FD96EDA6ADF5098EC09F05C2A040EB2
:101130005C64F5D7000E696E9AD7000E826E000EC1
:10114000836EFC0E94169592F00E9512CB0E436EA4
:10115000EC0E426E840EE82EFED7422EFCD7432EB4
:10116000FAD700D0CB0E436EEC0E426E840EE82E02
:10117000FED7422EFCD7432EFAD700D0660E436E20
:10118000760E426EC10EE82EFED7422EFCD7432EBD
:10119000FAD700F0060E436E130E426EAE0EE82E26
:1011A000FED7422EFCD7432EFAD7300EBFEC09F003
:1011B000410E426EEE0EE82EFED7422EFCD700D036
:1011C000300EBFEC09F0D60E00D000D0E82EFCD7D0
:1011D00000D0300EBFEC09F0280EBFEC09F00E0E67
:1011E000BFEC09F0010EBFEC09F0060EBFEC09F0F0
:1011F000060E436E130E426EAE0EE82EFED7422E42
:10120000FCD7432EFAD7000E756E000E746E010ED9
:10121000736E060E3A6E0E0E3C6E280E396E12007C
:1012200040D08C92060EE82EFED700D08C82060E9F
:10123000E82EFED700D08C92060EE82EFED700D006
:1012400012008C92030EE82EFED700F08C82030E63
:10125000E82EFED700F08C92C80E00D0E82EFDD705
:1012600012008C92060EE82EFED700D08C82060E5D
:10127000E82EFED700D08C92060EE82EFED700D0C6
:1012800012008C92060EE82EFED700D08C82060E3D
:10129000E82EFED700D08C92060EE82EFED700D0A6
:1012A000120075503E6E3F6A3F50000AD8A41200EB
:1012B0003E50000AD8B4B5D7010AD8B4C2D7030A41
:1012C000D8B4CFD7010AD8A41200DBD7446E030EDE
:1012D00044601200200E426401D012004404D8A4DD
:1012E00005D0100E426002D0420412D0020E441803
:1012F000D8A406D0100E426003D042503F0F08D051
:101300004404D8A41200100E4264120042502F0F61
:10131000436E7450D8A405D043508009BFEC09F047
:1013200004D0435080093BEC0AF043C071F0120036
:10133000416EFC0E941695920F0E95168B808B9233
:1013400041C040F0F00E401683500F0B4010836EEA
:1013500010EC09F041C040F0403AF00E4016F00E9B
:10136000401683500F0B4010836E10EC09F0820E74
:10137000406EDE0EE82EFED7402EFCD71200416EE6
:10138000FC0E941695920F0E95168B908B9241C081
:1013900040F0F00E401683500F0B4010836E10EC9F
:1013A00009F041C040F0403AF00E4016F00E4016F1
:1013B00083500F0B4010836E10EC09F0820E406ECC
:1013C000DE0EE82EFED7402EFCD7120052783A20CF
:1013D00030780000000000000000000052783A2041
:1013E000000000000000000000000000496E697469
:1013F0002073756363657373210042323A200042A3
:10140000313A200030060108CC0EF66E130EF76E4E
:10141000000EF86E00EE01F010EE3CF00900F5CF82
:10142000EEFFE550E150FAE100EE5DF0190EEE6AD4
:10143000E806FDE176907692000EF86E000108EF66
:1014400008F006009EB69DA614D0010E6D6EC9CFA1
:101450006BF0010E696E6BC03DF0C00E3D16D8B446
:1014600005D06A0EC96E010E6A6E02D03B0EC96EBF
:101470009E9676921100416EFC0E94169592000E87
:10148000956E8B908B9241C083FF10EC09F0820E19
:10149000406EDE0EE82EFED7402EFCD712007450B0
:1014A000D8A404D0010EBFEC09F003D0010E3BEC30
:1014B0000AF0820E426EDE0EE82EFED7422EFCD7D8
:1014C0001200C69AC684C78C180E9412949A928AF7
:1014D000C68AC69EC69CC9509E96010E6F6E9D869A
:0214E0001200F8
:020000040020DA
:08000000FFFFFFFFFFFFFFFF00
:020000040030CA
:0E000000FF061F1EFF8081FF0FC00FE00F40A4
:00000001FF
