:020000040000FA
:0400000007EF00F016
:100008001F8224ED00F009EF00F00C0EF66E010ED1
:10001800F76E000EF86E00EE19F010EE04F009000D
:10002800F5CFEEFFE550E150FAE100EE01F0180ED1
:10003800EE6AE806FDE11F901F9200013CEF00F018
:1000480006009EB69DA603D0010E106E9E969EB425
:100058009DA40CD00E50D8B404D0000E0E6E010E24
:1000680003D0010E0E6E000E0B6E9E941F921100AF
:1000780081EC00F07BEC00F0F40E1E6E240E1D6E79
:1000880071EC00F0CD80F28CF28E0B50D8B4FDD715
:10009800000E0D6E000E0B6EF8D7C69A010EC66ED6
:1000A800400EC76E9488D70E94169594C68AC69E3D
:1000B800C69CC9509E968C84000E126E9D861200B6
:1000C8008F0EF1160F0EC112070E9312F288F086EA
:1000D800F088F292F090F09212000B0EBD6EB70EFF
:1000E800B1161DC0BEFF1EC0BFFF9D841200800E4A
:1000F800CD6E300ECD129D80120064EC00F051ECF4
:0801080000F0120030060108AE
:020000040020DA
:08000000FFFFFFFFFFFFFFFF00
:020000040030CA
:0E000000FF061F1EFF8081FF0FC00FE00F40A4
:00000001FF
