:020000040000FA
:0400000007EF00F016
:100008003182D6ED00F089EF00F017EC01F0F28EA6
:1000180071EC01F0060E2B6E130E2A6EAE0EE82E52
:10002800FED72A2EFCD72B2EFAD74BEC01F0040A68
:10003800D8A4EED73EEC01F0040E266E000E276E13
:100048000F0EBEEC00F0C00E266EC00E276E2A0EF4
:10005800BEEC00F03F0E266E030E276E2A0EBEEC95
:1000680000F0800E266E800E276E290EBEEC00F082
:10007800400E266E000E276E290EBEEC00F0380EDC
:10008800266E380E276E290EBEEC00F0070E266E7F
:10009800040E276E290EBEEC00F0070E266E050E24
:1000A800276E280EBEEC00F0600E266E000E276E3E
:1000B800600EBEEC00F0600E266E000E276E700E0D
:1000C800BEEC00F0040E266E040E276E600EBEEC29
:1000D80000F0030E266E0F0E276E0D0EBEEC00F01C
:1000E8000C0E266E0F0E276E0D0EBEEC00F062ECA5
:1000F80001F0060E2B6E130E2A6EAE0EE82EFED7FA
:100108002A2EFCD72B2EFAD71200EE0EF66E020E10
:10011800F76E000EF86E00EE2CF010EE04F00900F9
:10012800F5CFEEFFE550E150FAE100EE01F0230EC5
:10013800EE6AE806FDE1319031920001EEEF00F041
:10014800256E010E306E000E1C6E1D50D8B48C94B6
:1001580025C0C9FF1C50D8B4FDD71D50D8B48C8415
:100168002450D96EDA6AC9CFDFFF000E306E000E58
:100178001C6E1200286E8C94230E246E050E03EC60
:1001880001F0230E246E285003EC01F0230E246E98
:10019800265003EC01F0230E246E275003EC01F0E7
:1001A8008C84120006009EB69DA603D0010E1C6E1C
:1001B8009E969EB49DA40CD01B50D8B404D0000EBB
:1001C8001B6E010E03D0010E1B6E000E186E9E945E
:1001D8003192110009EC00F06AEC01F0F40E256E82
:1001E800240E246E57EC01F0CD80F28CF28E18505C
:1001F800D8B4FDD7000E1A6E000E186EF8D7256E0B
:10020800010E306E000E1C6E25C0C9FF1C50D8B4FC
:10021800FDD72450D96EDA6AC9CFDFFF000E306EE1
:10022800000E1C6E1200C69A010EC66E400EC76EF6
:100238009488D70E94169594C68AC69EC69CC950B3
:100248009E968C84000E1D6E9D86F28C1200276E81
:100258008C94230E246E030E03EC01F0230E246EFF
:10026800275003EC01F026C024F0000E03EC01F047
:100278008C8412008F0EF1160F0EC112070E931206
:10028800F288F086F088F292F090F0921200000E58
:10029800296E290E266E0E0E2BEC01F02950E00B6C
:1002A800286E285012000B0EBD6EB70EB11624C072
:1002B800BEFF25C0BFFF9D84F28C1200E00E266EA3
:1002C800000E276E0F0EBEEC00F01200800ECD6EF1
:1002D800300ECD129D80F28C1200230E246EC00EBB
:0A02E800A4EC00F01200300601083B
:020000040020DA
:08000000FFFFFFFFFFFFFFFF00
:020000040030CA
:0E000000FF061F1EFF8081FF0FC00FE00F40A4
:00000001FF
